{
  "contractName": "Journal",
  "abi": [
    {
      "constant": true,
      "inputs": [],
      "name": "totalPaperNum",
      "outputs": [
        {
          "name": "",
          "type": "uint256"
        }
      ],
      "payable": false,
      "stateMutability": "view",
      "type": "function",
      "signature": "0x04bc9b14"
    },
    {
      "constant": true,
      "inputs": [
        {
          "name": "",
          "type": "address"
        }
      ],
      "name": "addressTotalUploaded",
      "outputs": [
        {
          "name": "",
          "type": "uint256"
        }
      ],
      "payable": false,
      "stateMutability": "view",
      "type": "function",
      "signature": "0x1e578d29"
    },
    {
      "constant": true,
      "inputs": [
        {
          "name": "",
          "type": "address"
        },
        {
          "name": "",
          "type": "uint256"
        }
      ],
      "name": "addressUploaded",
      "outputs": [
        {
          "name": "",
          "type": "uint256"
        }
      ],
      "payable": false,
      "stateMutability": "view",
      "type": "function",
      "signature": "0x2b545d6a"
    },
    {
      "constant": true,
      "inputs": [
        {
          "name": "",
          "type": "uint256"
        }
      ],
      "name": "check",
      "outputs": [
        {
          "name": "",
          "type": "uint256"
        }
      ],
      "payable": false,
      "stateMutability": "view",
      "type": "function",
      "signature": "0x5f72f450"
    },
    {
      "constant": true,
      "inputs": [],
      "name": "totalReviewNum",
      "outputs": [
        {
          "name": "",
          "type": "uint256"
        }
      ],
      "payable": false,
      "stateMutability": "view",
      "type": "function",
      "signature": "0x6978cb54"
    },
    {
      "constant": true,
      "inputs": [
        {
          "name": "",
          "type": "uint256"
        }
      ],
      "name": "reviewDict",
      "outputs": [
        {
          "name": "accept",
          "type": "bool"
        },
        {
          "name": "reviewer",
          "type": "string"
        },
        {
          "name": "comment",
          "type": "string"
        }
      ],
      "payable": false,
      "stateMutability": "view",
      "type": "function",
      "signature": "0xb38daf60"
    },
    {
      "constant": true,
      "inputs": [
        {
          "name": "",
          "type": "uint256"
        }
      ],
      "name": "paperDict",
      "outputs": [
        {
          "name": "title",
          "type": "string"
        },
        {
          "name": "year",
          "type": "uint256"
        },
        {
          "name": "paperAbstract",
          "type": "string"
        },
        {
          "name": "ipfsHash",
          "type": "string"
        },
        {
          "name": "passReviewed",
          "type": "bool"
        },
        {
          "name": "reviewedTimes",
          "type": "uint256"
        }
      ],
      "payable": false,
      "stateMutability": "view",
      "type": "function",
      "signature": "0xc31ceba0"
    },
    {
      "inputs": [],
      "payable": false,
      "stateMutability": "nonpayable",
      "type": "constructor",
      "signature": "constructor"
    },
    {
      "constant": false,
      "inputs": [
        {
          "name": "_title",
          "type": "string"
        },
        {
          "name": "_year",
          "type": "uint256"
        },
        {
          "name": "_paperAbstract",
          "type": "string"
        },
        {
          "name": "_ipfsHash",
          "type": "string"
        }
      ],
      "name": "uploadPaper",
      "outputs": [
        {
          "name": "",
          "type": "uint256"
        }
      ],
      "payable": false,
      "stateMutability": "nonpayable",
      "type": "function",
      "signature": "0x96097424"
    },
    {
      "constant": false,
      "inputs": [
        {
          "name": "_paperId",
          "type": "uint256"
        },
        {
          "name": "_accept",
          "type": "bool"
        },
        {
          "name": "_reviewer",
          "type": "string"
        },
        {
          "name": "_comment",
          "type": "string"
        }
      ],
      "name": "reviewPaper",
      "outputs": [],
      "payable": false,
      "stateMutability": "nonpayable",
      "type": "function",
      "signature": "0xf09e1dd5"
    },
    {
      "constant": false,
      "inputs": [
        {
          "name": "_paperId",
          "type": "uint256"
        }
      ],
      "name": "setCheck",
      "outputs": [],
      "payable": false,
      "stateMutability": "nonpayable",
      "type": "function",
      "signature": "0x2c948bd2"
    }
  ],
  "bytecode": "0x608060405234801561001057600080fd5b506000808190555060006001819055506113958061002f6000396000f3fe6080604052600436106100a4576000357c0100000000000000000000000000000000000000000000000000000000900463ffffffff16806304bc9b14146100a95780631e578d29146100d45780632b545d6a146101395780632c948bd2146101a85780635f72f450146101e35780636978cb5414610232578063960974241461025d578063b38daf6014610471578063c31ceba01461059c578063f09e1dd514610741575b600080fd5b3480156100b557600080fd5b506100be6108b6565b6040518082815260200191505060405180910390f35b3480156100e057600080fd5b50610123600480360360208110156100f757600080fd5b81019080803573ffffffffffffffffffffffffffffffffffffffff1690602001909291905050506108bc565b6040518082815260200191505060405180910390f35b34801561014557600080fd5b506101926004803603604081101561015c57600080fd5b81019080803573ffffffffffffffffffffffffffffffffffffffff169060200190929190803590602001909291905050506108d4565b6040518082815260200191505060405180910390f35b3480156101b457600080fd5b506101e1600480360360208110156101cb57600080fd5b81019080803590602001909291905050506108f9565b005b3480156101ef57600080fd5b5061021c6004803603602081101561020657600080fd5b81019080803590602001909291905050506109bd565b6040518082815260200191505060405180910390f35b34801561023e57600080fd5b506102476109d5565b6040518082815260200191505060405180910390f35b34801561026957600080fd5b5061045b6004803603608081101561028057600080fd5b810190808035906020019064010000000081111561029d57600080fd5b8201836020820111156102af57600080fd5b803590602001918460018302840111640100000000831117156102d157600080fd5b91908080601f016020809104026020016040519081016040528093929190818152602001838380828437600081840152601f19601f820116905080830192505050505050509192919290803590602001909291908035906020019064010000000081111561033e57600080fd5b82018360208201111561035057600080fd5b8035906020019184600183028401116401000000008311171561037257600080fd5b91908080601f016020809104026020016040519081016040528093929190818152602001838380828437600081840152601f19601f820116905080830192505050505050509192919290803590602001906401000000008111156103d557600080fd5b8201836020820111156103e757600080fd5b8035906020019184600183028401116401000000008311171561040957600080fd5b91908080601f016020809104026020016040519081016040528093929190818152602001838380828437600081840152601f19601f8201169050808301925050505050505091929192905050506109db565b6040518082815260200191505060405180910390f35b34801561047d57600080fd5b506104aa6004803603602081101561049457600080fd5b8101908080359060200190929190505050610be2565b60405180841515151581526020018060200180602001838103835285818151815260200191508051906020019080838360005b838110156104f85780820151818401526020810190506104dd565b50505050905090810190601f1680156105255780820380516001836020036101000a031916815260200191505b50838103825284818151815260200191508051906020019080838360005b8381101561055e578082015181840152602081019050610543565b50505050905090810190601f16801561058b5780820380516001836020036101000a031916815260200191505b509550505050505060405180910390f35b3480156105a857600080fd5b506105d5600480360360208110156105bf57600080fd5b8101908080359060200190929190505050610d49565b604051808060200187815260200180602001806020018615151515815260200185815260200184810384528a818151815260200191508051906020019080838360005b83811015610633578082015181840152602081019050610618565b50505050905090810190601f1680156106605780820380516001836020036101000a031916815260200191505b50848103835288818151815260200191508051906020019080838360005b8381101561069957808201518184015260208101905061067e565b50505050905090810190601f1680156106c65780820380516001836020036101000a031916815260200191505b50848103825287818151815260200191508051906020019080838360005b838110156106ff5780820151818401526020810190506106e4565b50505050905090810190601f16801561072c5780820380516001836020036101000a031916815260200191505b50995050505050505050505060405180910390f35b34801561074d57600080fd5b506108b46004803603608081101561076457600080fd5b81019080803590602001909291908035151590602001909291908035906020019064010000000081111561079757600080fd5b8201836020820111156107a957600080fd5b803590602001918460018302840111640100000000831117156107cb57600080fd5b91908080601f016020809104026020016040519081016040528093929190818152602001838380828437600081840152601f19601f8201169050808301925050505050505091929192908035906020019064010000000081111561082e57600080fd5b82018360208201111561084057600080fd5b8035906020019184600183028401116401000000008311171561086257600080fd5b91908080601f016020809104026020016040519081016040528093929190818152602001838380828437600081840152601f19601f820116905080830192505050505050509192919290505050610f5a565b005b60005481565b60046020528060005260406000206000915090505481565b6005602052816000526040600020602052806000526040600020600091509150505481565b6109016111d1565b60036000838152602001908152602001600020600601600a806020026040519081016040528092919082600a801561094e576020028201915b81548152602001906001019080831161093a575b505050505090506000600360008481526020019081526020016000206005015490506000600190505b81811115156109b7578281600a8110151561098e57fe5b602002015160066000838152602001908152602001600020819055508080600101915050610977565b50505050565b60066020528060005260406000206000915090505481565b60015481565b600080600081548092919060010191905055506109f66111d1565b6109fe6111f5565b60e060405190810160405280888152602001878152602001868152602001858152602001600015158152602001600081526020018381525090508060036000805481526020019081526020016000206000820151816000019080519060200190610a6992919061123c565b50602082015181600101556040820151816002019080519060200190610a9092919061123c565b506060820151816003019080519060200190610aad92919061123c565b5060808201518160040160006101000a81548160ff02191690831515021790555060a0820151816005015560c08201518160060190600a610aef9291906112bc565b50905050600460003373ffffffffffffffffffffffffffffffffffffffff1673ffffffffffffffffffffffffffffffffffffffff16815260200190815260200160002060008154809291906001019190505550600054600560003373ffffffffffffffffffffffffffffffffffffffff1673ffffffffffffffffffffffffffffffffffffffff1681526020019081526020016000206000600460003373ffffffffffffffffffffffffffffffffffffffff1673ffffffffffffffffffffffffffffffffffffffff168152602001908152602001600020548152602001908152602001600020819055505050949350505050565b60026020528060005260406000206000915090508060000160009054906101000a900460ff1690806001018054600181600116156101000203166002900480601f016020809104026020016040519081016040528092919081815260200182805460018160011615610100020316600290048015610ca15780601f10610c7657610100808354040283529160200191610ca1565b820191906000526020600020905b815481529060010190602001808311610c8457829003601f168201915b505050505090806002018054600181600116156101000203166002900480601f016020809104026020016040519081016040528092919081815260200182805460018160011615610100020316600290048015610d3f5780601f10610d1457610100808354040283529160200191610d3f565b820191906000526020600020905b815481529060010190602001808311610d2257829003601f168201915b5050505050905083565b6003602052806000526040600020600091509050806000018054600181600116156101000203166002900480601f016020809104026020016040519081016040528092919081815260200182805460018160011615610100020316600290048015610df55780601f10610dca57610100808354040283529160200191610df5565b820191906000526020600020905b815481529060010190602001808311610dd857829003601f168201915b505050505090806001015490806002018054600181600116156101000203166002900480601f016020809104026020016040519081016040528092919081815260200182805460018160011615610100020316600290048015610e995780601f10610e6e57610100808354040283529160200191610e99565b820191906000526020600020905b815481529060010190602001808311610e7c57829003601f168201915b505050505090806003018054600181600116156101000203166002900480601f016020809104026020016040519081016040528092919081815260200182805460018160011615610100020316600290048015610f375780601f10610f0c57610100808354040283529160200191610f37565b820191906000526020600020905b815481529060010190602001808311610f1a57829003601f168201915b5050505050908060040160009054906101000a900460ff16908060050154905086565b600015156003600086815260200190815260200160002060040160009054906101000a900460ff161515141515610ff9576040517f08c379a000000000000000000000000000000000000000000000000000000000815260040180806020018281038252601c8152602001807f5468652070617065722068617320706173736564207265766965772e0000000081525060200191505060405180910390fd5b600a600360008681526020019081526020016000206005015411151515611088576040517f08c379a00000000000000000000000000000000000000000000000000000000081526004018080602001828103825260118152602001807f546f6f206d616e7920726576696577732e00000000000000000000000000000081525060200191505060405180910390fd5b6001600081548092919060010191905055506110a26112fc565b60606040519081016040528085151581526020018481526020018381525090508060026000600154815260200190815260200160002060008201518160000160006101000a81548160ff021916908315150217905550602082015181600101908051906020019061111492919061123c565b50604082015181600201908051906020019061113192919061123c565b509050506003600086815260200190815260200160002060050160008154809291906001019190505550836003600087815260200190815260200160002060040160006101000a81548160ff021916908315150217905550600154600360008781526020019081526020016000206006016003600088815260200190815260200160002060050154600a811015156111c557fe5b01819055505050505050565b61014060405190810160405280600a90602082028038833980820191505090505090565b610200604051908101604052806060815260200160008152602001606081526020016060815260200160001515815260200160008152602001611236611320565b81525090565b828054600181600116156101000203166002900490600052602060002090601f016020900481019282601f1061127d57805160ff19168380011785556112ab565b828001600101855582156112ab579182015b828111156112aa57825182559160200191906001019061128f565b5b5090506112b89190611344565b5090565b82600a81019282156112eb579160200282015b828111156112ea5782518255916020019190600101906112cf565b5b5090506112f89190611344565b5090565b60606040519081016040528060001515815260200160608152602001606081525090565b61014060405190810160405280600a90602082028038833980820191505090505090565b61136691905b8082111561136257600081600090555060010161134a565b5090565b9056fea165627a7a72305820bc2c591ddad2c2e397488e622dbe98bd7c798dbe91bf4acea999ca95ca47391c0029",
  "source": "pragma solidity ^0.5.0;\n\nimport \"./JournalResearcher.sol\" as researcher;\n\ncontract Journal {\n    uint public totalPaperNum;\n    uint public totalReviewNum;\n\n    struct Review {\n        bool accept;\n        string reviewer;\n        string comment;\n    }\n\n    struct Paper {\n        string title;\n        uint year;\n        string paperAbstract;\n        string ipfsHash;\n        bool passReviewed;\n        uint reviewedTimes;\n        uint[10] reviewLog;\n    }\n\n    mapping(uint => Review) public reviewDict;\n    mapping(uint => Paper) public paperDict;\n    mapping(address => uint) public addressTotalUploaded;\n    mapping(address => mapping(uint => uint)) public addressUploaded;\n    mapping(uint => uint) public check;\n\n    constructor() public {\n        totalPaperNum = 0;\n        totalReviewNum = 0;\n    }\n\n\n    function uploadPaper(string memory _title, uint _year, string memory _paperAbstract, string memory _ipfsHash) public returns(uint){\n        totalPaperNum++;\n        uint[10] memory _reviewLog;\n        Paper memory newPaper = Paper({\n            title: _title,\n            year: _year,\n            paperAbstract: _paperAbstract,\n            ipfsHash: _ipfsHash,\n            passReviewed: false,\n            reviewedTimes: 0,\n            reviewLog: _reviewLog\n        });\n        paperDict[totalPaperNum] = newPaper;\n        addressTotalUploaded[msg.sender]++;\n        addressUploaded[msg.sender][addressTotalUploaded[msg.sender]] = totalPaperNum;\n    }\n\n    function reviewPaper(uint _paperId, bool _accept, string memory _reviewer, string memory _comment) public {\n        require(paperDict[_paperId].passReviewed == false, \"The paper has passed review.\");\n        require(paperDict[_paperId].reviewedTimes <= 10, \"Too many reviews.\");\n\n        totalReviewNum++;\n        Review memory newReview = Review(_accept, _reviewer, _comment);\n        reviewDict[totalReviewNum] = newReview;\n\n        paperDict[_paperId].reviewedTimes++;\n        paperDict[_paperId].passReviewed = _accept;\n        paperDict[_paperId].reviewLog[paperDict[_paperId].reviewedTimes] = totalReviewNum;\n    }\n\n    function setCheck(uint _paperId) public {\n        uint[10] memory log = paperDict[_paperId].reviewLog;\n        uint n = paperDict[_paperId].reviewedTimes;\n        for(uint i = 1; i <= n; i++){\n            check[i] = log[i];\n        }\n    }\n}\n",
  "sourcePath": "/home/kevin/paperschain/contracts/Journal.sol",
  "compiler": {
    "name": "solc",
    "version": "0.5.0+commit.1d4f565a.Emscripten.clang"
  },
  "schemaVersion": "3.0.6",
  "updatedAt": "2019-06-19T01:37:19.302Z",
  "devdoc": {
    "methods": {}
  },
  "userdoc": {
    "methods": {}
  }
}