{
  "contractName": "JournalResearcher",
  "abi": [
    {
      "constant": true,
      "inputs": [
        {
          "name": "",
          "type": "uint256"
        }
      ],
      "name": "idConf",
      "outputs": [
        {
          "name": "confName",
          "type": "string"
        },
        {
          "name": "time",
          "type": "string"
        },
        {
          "name": "intro",
          "type": "string"
        },
        {
          "name": "reviewers",
          "type": "string"
        }
      ],
      "payable": false,
      "stateMutability": "view",
      "type": "function",
      "signature": "0x035e315e"
    },
    {
      "constant": true,
      "inputs": [
        {
          "name": "",
          "type": "address"
        }
      ],
      "name": "addressId",
      "outputs": [
        {
          "name": "",
          "type": "uint256"
        }
      ],
      "payable": false,
      "stateMutability": "view",
      "type": "function",
      "signature": "0x078002ac"
    },
    {
      "constant": true,
      "inputs": [
        {
          "name": "",
          "type": "uint256"
        }
      ],
      "name": "idMember",
      "outputs": [
        {
          "name": "name",
          "type": "string"
        },
        {
          "name": "status",
          "type": "string"
        },
        {
          "name": "organization",
          "type": "string"
        },
        {
          "name": "email",
          "type": "string"
        },
        {
          "name": "published",
          "type": "uint256"
        }
      ],
      "payable": false,
      "stateMutability": "view",
      "type": "function",
      "signature": "0x86249375"
    },
    {
      "constant": true,
      "inputs": [],
      "name": "totalConfNum",
      "outputs": [
        {
          "name": "",
          "type": "uint256"
        }
      ],
      "payable": false,
      "stateMutability": "view",
      "type": "function",
      "signature": "0xab87dcd8"
    },
    {
      "constant": true,
      "inputs": [],
      "name": "totalResearcherNum",
      "outputs": [
        {
          "name": "",
          "type": "uint256"
        }
      ],
      "payable": false,
      "stateMutability": "view",
      "type": "function",
      "signature": "0xf4fb4780"
    },
    {
      "inputs": [],
      "payable": false,
      "stateMutability": "nonpayable",
      "type": "constructor",
      "signature": "constructor"
    },
    {
      "constant": false,
      "inputs": [
        {
          "name": "_name",
          "type": "string"
        },
        {
          "name": "_status",
          "type": "string"
        },
        {
          "name": "_org",
          "type": "string"
        },
        {
          "name": "_email",
          "type": "string"
        }
      ],
      "name": "register",
      "outputs": [],
      "payable": false,
      "stateMutability": "nonpayable",
      "type": "function",
      "signature": "0x0e24c52c"
    },
    {
      "constant": false,
      "inputs": [
        {
          "name": "_conf",
          "type": "string"
        },
        {
          "name": "_time",
          "type": "string"
        },
        {
          "name": "_intro",
          "type": "string"
        },
        {
          "name": "_reviewers",
          "type": "string"
        }
      ],
      "name": "createConf",
      "outputs": [],
      "payable": false,
      "stateMutability": "nonpayable",
      "type": "function",
      "signature": "0xbac0033e"
    }
  ],
  "bytecode": "0x608060405234801561001057600080fd5b5060008081905550600060018190555061145e8061002f6000396000f3fe608060405260043610610083576000357c0100000000000000000000000000000000000000000000000000000000900463ffffffff168063035e315e14610088578063078002ac146102805780630e24c52c146102e55780638624937514610572578063ab87dcd814610771578063bac0033e1461079c578063f4fb478014610a29575b600080fd5b34801561009457600080fd5b506100c1600480360360208110156100ab57600080fd5b8101908080359060200190929190505050610a54565b6040518080602001806020018060200180602001858103855289818151815260200191508051906020019080838360005b8381101561010d5780820151818401526020810190506100f2565b50505050905090810190601f16801561013a5780820380516001836020036101000a031916815260200191505b50858103845288818151815260200191508051906020019080838360005b83811015610173578082015181840152602081019050610158565b50505050905090810190601f1680156101a05780820380516001836020036101000a031916815260200191505b50858103835287818151815260200191508051906020019080838360005b838110156101d95780820151818401526020810190506101be565b50505050905090810190601f1680156102065780820380516001836020036101000a031916815260200191505b50858103825286818151815260200191508051906020019080838360005b8381101561023f578082015181840152602081019050610224565b50505050905090810190601f16801561026c5780820380516001836020036101000a031916815260200191505b509850505050505050505060405180910390f35b34801561028c57600080fd5b506102cf600480360360208110156102a357600080fd5b81019080803573ffffffffffffffffffffffffffffffffffffffff169060200190929190505050610ce4565b6040518082815260200191505060405180910390f35b3480156102f157600080fd5b506105706004803603608081101561030857600080fd5b810190808035906020019064010000000081111561032557600080fd5b82018360208201111561033757600080fd5b8035906020019184600183028401116401000000008311171561035957600080fd5b91908080601f016020809104026020016040519081016040528093929190818152602001838380828437600081840152601f19601f820116905080830192505050505050509192919290803590602001906401000000008111156103bc57600080fd5b8201836020820111156103ce57600080fd5b803590602001918460018302840111640100000000831117156103f057600080fd5b91908080601f016020809104026020016040519081016040528093929190818152602001838380828437600081840152601f19601f8201169050808301925050505050505091929192908035906020019064010000000081111561045357600080fd5b82018360208201111561046557600080fd5b8035906020019184600183028401116401000000008311171561048757600080fd5b91908080601f016020809104026020016040519081016040528093929190818152602001838380828437600081840152601f19601f820116905080830192505050505050509192919290803590602001906401000000008111156104ea57600080fd5b8201836020820111156104fc57600080fd5b8035906020019184600183028401116401000000008311171561051e57600080fd5b91908080601f016020809104026020016040519081016040528093929190818152602001838380828437600081840152601f19601f820116905080830192505050505050509192919290505050610cfc565b005b34801561057e57600080fd5b506105ab6004803603602081101561059557600080fd5b8101908080359060200190929190505050611025565b604051808060200180602001806020018060200186815260200185810385528a818151815260200191508051906020019080838360005b838110156105fd5780820151818401526020810190506105e2565b50505050905090810190601f16801561062a5780820380516001836020036101000a031916815260200191505b50858103845289818151815260200191508051906020019080838360005b83811015610663578082015181840152602081019050610648565b50505050905090810190601f1680156106905780820380516001836020036101000a031916815260200191505b50858103835288818151815260200191508051906020019080838360005b838110156106c95780820151818401526020810190506106ae565b50505050905090810190601f1680156106f65780820380516001836020036101000a031916815260200191505b50858103825287818151815260200191508051906020019080838360005b8381101561072f578082015181840152602081019050610714565b50505050905090810190601f16801561075c5780820380516001836020036101000a031916815260200191505b50995050505050505050505060405180910390f35b34801561077d57600080fd5b506107866112bb565b6040518082815260200191505060405180910390f35b3480156107a857600080fd5b50610a27600480360360808110156107bf57600080fd5b81019080803590602001906401000000008111156107dc57600080fd5b8201836020820111156107ee57600080fd5b8035906020019184600183028401116401000000008311171561081057600080fd5b91908080601f016020809104026020016040519081016040528093929190818152602001838380828437600081840152601f19601f8201169050808301925050505050505091929192908035906020019064010000000081111561087357600080fd5b82018360208201111561088557600080fd5b803590602001918460018302840111640100000000831117156108a757600080fd5b91908080601f016020809104026020016040519081016040528093929190818152602001838380828437600081840152601f19601f8201169050808301925050505050505091929192908035906020019064010000000081111561090a57600080fd5b82018360208201111561091c57600080fd5b8035906020019184600183028401116401000000008311171561093e57600080fd5b91908080601f016020809104026020016040519081016040528093929190818152602001838380828437600081840152601f19601f820116905080830192505050505050509192919290803590602001906401000000008111156109a157600080fd5b8201836020820111156109b357600080fd5b803590602001918460018302840111640100000000831117156109d557600080fd5b91908080601f016020809104026020016040519081016040528093929190818152602001838380828437600081840152601f19601f8201169050808301925050505050505091929192905050506112c1565b005b348015610a3557600080fd5b50610a3e611387565b6040518082815260200191505060405180910390f35b6005602052806000526040600020600091509050806000018054600181600116156101000203166002900480601f016020809104026020016040519081016040528092919081815260200182805460018160011615610100020316600290048015610b005780601f10610ad557610100808354040283529160200191610b00565b820191906000526020600020905b815481529060010190602001808311610ae357829003601f168201915b505050505090806001018054600181600116156101000203166002900480601f016020809104026020016040519081016040528092919081815260200182805460018160011615610100020316600290048015610b9e5780601f10610b7357610100808354040283529160200191610b9e565b820191906000526020600020905b815481529060010190602001808311610b8157829003601f168201915b505050505090806002018054600181600116156101000203166002900480601f016020809104026020016040519081016040528092919081815260200182805460018160011615610100020316600290048015610c3c5780601f10610c1157610100808354040283529160200191610c3c565b820191906000526020600020905b815481529060010190602001808311610c1f57829003601f168201915b505050505090806003018054600181600116156101000203166002900480601f016020809104026020016040519081016040528092919081815260200182805460018160011615610100020316600290048015610cda5780601f10610caf57610100808354040283529160200191610cda565b820191906000526020600020905b815481529060010190602001808311610cbd57829003601f168201915b5050505050905084565b60036020528060005260406000206000915090505481565b6000600360003373ffffffffffffffffffffffffffffffffffffffff1673ffffffffffffffffffffffffffffffffffffffff16815260200190815260200160002054141515610db3576040517f08c379a000000000000000000000000000000000000000000000000000000000815260040180806020018281038252601b8152602001807f43757272656e742075736572206861732072656769737465726564000000000081525060200191505060405180910390fd5b60006002826040518082805190602001908083835b602083101515610ded5780518252602082019150602081019050602083039250610dc8565b6001836020036101000a038019825116818451168082178552505050505050905001915050908152602001604051809103902054141515610e96576040517f08c379a000000000000000000000000000000000000000000000000000000000815260040180806020018281038252601c8152602001807f43757272656e7420656d61696c2068617320726567697374657265640000000081525060200191505060405180910390fd5b600080815480929190600101919050555060008054905080600360003373ffffffffffffffffffffffffffffffffffffffff1673ffffffffffffffffffffffffffffffffffffffff16815260200190815260200160002081905550806002836040518082805190602001908083835b602083101515610f2a5780518252602082019150602081019050602083039250610f05565b6001836020036101000a03801982511681845116808217855250505050505090500191505090815260200160405180910390208190555060a0604051908101604052808681526020018581526020018481526020018381526020016000815250600460008381526020019081526020016000206000820151816000019080519060200190610fb992919061138d565b506020820151816001019080519060200190610fd692919061138d565b506040820151816002019080519060200190610ff392919061138d565b50606082015181600301908051906020019061101092919061138d565b50608082015181600401559050505050505050565b6004602052806000526040600020600091509050806000018054600181600116156101000203166002900480601f0160208091040260200160405190810160405280929190818152602001828054600181600116156101000203166002900480156110d15780601f106110a6576101008083540402835291602001916110d1565b820191906000526020600020905b8154815290600101906020018083116110b457829003601f168201915b505050505090806001018054600181600116156101000203166002900480601f01602080910402602001604051908101604052809291908181526020018280546001816001161561010002031660029004801561116f5780601f106111445761010080835404028352916020019161116f565b820191906000526020600020905b81548152906001019060200180831161115257829003601f168201915b505050505090806002018054600181600116156101000203166002900480601f01602080910402602001604051908101604052809291908181526020018280546001816001161561010002031660029004801561120d5780601f106111e25761010080835404028352916020019161120d565b820191906000526020600020905b8154815290600101906020018083116111f057829003601f168201915b505050505090806003018054600181600116156101000203166002900480601f0160208091040260200160405190810160405280929190818152602001828054600181600116156101000203166002900480156112ab5780601f10611280576101008083540402835291602001916112ab565b820191906000526020600020905b81548152906001019060200180831161128e57829003601f168201915b5050505050908060040154905085565b60015481565b60016000815480929190600101919050555060806040519081016040528085815260200184815260200183815260200182815250600560006001548152602001908152602001600020600082015181600001908051906020019061132692919061138d565b50602082015181600101908051906020019061134392919061138d565b50604082015181600201908051906020019061136092919061138d565b50606082015181600301908051906020019061137d92919061138d565b5090505050505050565b60005481565b828054600181600116156101000203166002900490600052602060002090601f016020900481019282601f106113ce57805160ff19168380011785556113fc565b828001600101855582156113fc579182015b828111156113fb5782518255916020019190600101906113e0565b5b509050611409919061140d565b5090565b61142f91905b8082111561142b576000816000905550600101611413565b5090565b9056fea165627a7a7230582005e526017d58bc0cd7cc117342ef67c4a22fd105d877f330bbed774f788803050029",
  "source": "pragma solidity ^0.5.0;\n\ncontract JournalResearcher{\n    uint public totalResearcherNum;\n    uint public totalConfNum;\n\n    struct Researcher {\n        string name;\n        string status;\n        string organization;\n        string email;\n        uint published;\n        mapping (uint => uint) papersId;\n    }\n\n    struct Conference {\n        string confName;\n        string time;\n        string intro;\n        string reviewers;\n    }\n\n    mapping (string => uint) emailId;\n    mapping (address => uint) public addressId;\n    mapping (uint => Researcher) public idMember;\n    mapping (uint => Conference) public idConf;\n\n    constructor() public{\n        totalResearcherNum = 0;\n        totalConfNum = 0;\n    }\n\n    function register(string memory _name, string memory _status, string memory _org, string memory _email) public {\n        require(addressId[msg.sender] == 0, \"Current user has registered\");\n        require(emailId[_email] == 0, \"Current email has registered\");\n        totalResearcherNum++;\n        uint _id = totalResearcherNum;\n        addressId[msg.sender] = _id;\n        emailId[_email] = _id;\n        idMember[_id] = Researcher({\n            name: _name,\n            status: _status,\n            organization: _org,\n            email: _email,\n            published: 0\n        });\n    }\n    \n    function createConf(string memory _conf, string memory _time, string memory _intro, string memory _reviewers) public{\n        totalConfNum++;\n        idConf[totalConfNum] = Conference(_conf, _time, _intro, _reviewers);\n    }\n}\n",
  "sourcePath": "/home/kevin/paperschain/contracts/JournalResearcher.sol",
  "compiler": {
    "name": "solc",
    "version": "0.5.0+commit.1d4f565a.Emscripten.clang"
  },
  "schemaVersion": "3.0.6",
  "updatedAt": "2019-06-19T01:37:18.609Z",
  "devdoc": {
    "methods": {}
  },
  "userdoc": {
    "methods": {}
  }
}